{
    "contractName": "StructStorage",
    "abi": [
        {
            "inputs": [],
            "name": "c",
            "outputs": [
                {
                    "internalType": "uint256",
                    "name": "",
                    "type": "uint256"
                }
            ],
            "stateMutability": "view",
            "type": "function"
        },
        {
            "inputs": [
                {
                    "internalType": "uint256",
                    "name": "",
                    "type": "uint256"
                }
            ],
            "name": "fm",
            "outputs": [
                {
                    "internalType": "bytes",
                    "name": "fid",
                    "type": "bytes"
                },
                {
                    "internalType": "bytes32",
                    "name": "fname",
                    "type": "bytes32"
                },
                {
                    "internalType": "bytes32",
                    "name": "loc",
                    "type": "bytes32"
                },
                {
                    "internalType": "bytes32",
                    "name": "crop",
                    "type": "bytes32"
                },
                {
                    "internalType": "uint256",
                    "name": "contact",
                    "type": "uint256"
                },
                {
                    "internalType": "uint256",
                    "name": "quantity",
                    "type": "uint256"
                },
                {
                    "internalType": "uint256",
                    "name": "exprice",
                    "type": "uint256"
                }
            ],
            "stateMutability": "view",
            "type": "function"
        },
        {
            "inputs": [
                {
                    "internalType": "address",
                    "name": "addr",
                    "type": "address"
                }
            ],
            "name": "fundaddr",
            "outputs": [],
            "stateMutability": "nonpayable",
            "type": "function"
        },
        {
            "inputs": [
                {
                    "internalType": "address",
                    "name": "addr",
                    "type": "address"
                }
            ],
            "name": "getBalance",
            "outputs": [
                {
                    "internalType": "uint256",
                    "name": "",
                    "type": "uint256"
                }
            ],
            "stateMutability": "view",
            "type": "function"
        },
        {
            "inputs": [
                {
                    "internalType": "bytes",
                    "name": "j",
                    "type": "bytes"
                }
            ],
            "name": "getproduce",
            "outputs": [
                {
                    "internalType": "bytes",
                    "name": "",
                    "type": "bytes"
                },
                {
                    "internalType": "bytes32",
                    "name": "",
                    "type": "bytes32"
                },
                {
                    "internalType": "bytes32",
                    "name": "",
                    "type": "bytes32"
                },
                {
                    "internalType": "bytes32",
                    "name": "",
                    "type": "bytes32"
                },
                {
                    "internalType": "uint256",
                    "name": "",
                    "type": "uint256"
                },
                {
                    "internalType": "uint256",
                    "name": "",
                    "type": "uint256"
                },
                {
                    "internalType": "uint256",
                    "name": "",
                    "type": "uint256"
                }
            ],
            "stateMutability": "view",
            "type": "function"
        },
        {
            "inputs": [
                {
                    "internalType": "bytes",
                    "name": "k",
                    "type": "bytes"
                }
            ],
            "name": "getquality",
            "outputs": [
                {
                    "internalType": "bytes",
                    "name": "",
                    "type": "bytes"
                },
                {
                    "internalType": "bytes",
                    "name": "",
                    "type": "bytes"
                },
                {
                    "internalType": "uint256",
                    "name": "",
                    "type": "uint256"
                },
                {
                    "internalType": "bytes32",
                    "name": "",
                    "type": "bytes32"
                },
                {
                    "internalType": "bytes32",
                    "name": "",
                    "type": "bytes32"
                }
            ],
            "stateMutability": "view",
            "type": "function"
        },
        {
            "inputs": [
                {
                    "internalType": "uint256",
                    "name": "",
                    "type": "uint256"
                }
            ],
            "name": "l",
            "outputs": [
                {
                    "internalType": "bytes",
                    "name": "lotno",
                    "type": "bytes"
                },
                {
                    "internalType": "bytes",
                    "name": "grade",
                    "type": "bytes"
                },
                {
                    "internalType": "uint256",
                    "name": "mrp",
                    "type": "uint256"
                },
                {
                    "internalType": "bytes32",
                    "name": "testdate",
                    "type": "bytes32"
                },
                {
                    "internalType": "bytes32",
                    "name": "expdate",
                    "type": "bytes32"
                }
            ],
            "stateMutability": "view",
            "type": "function"
        },
        {
            "inputs": [
                {
                    "internalType": "bytes",
                    "name": "id",
                    "type": "bytes"
                },
                {
                    "internalType": "bytes32",
                    "name": "name",
                    "type": "bytes32"
                },
                {
                    "internalType": "bytes32",
                    "name": "loc",
                    "type": "bytes32"
                },
                {
                    "internalType": "bytes32",
                    "name": "cr",
                    "type": "bytes32"
                },
                {
                    "internalType": "uint256",
                    "name": "con",
                    "type": "uint256"
                },
                {
                    "internalType": "uint256",
                    "name": "q",
                    "type": "uint256"
                },
                {
                    "internalType": "uint256",
                    "name": "pr",
                    "type": "uint256"
                }
            ],
            "name": "produce",
            "outputs": [],
            "stateMutability": "nonpayable",
            "type": "function"
        },
        {
            "inputs": [
                {
                    "internalType": "bytes",
                    "name": "ll",
                    "type": "bytes"
                },
                {
                    "internalType": "bytes",
                    "name": "g",
                    "type": "bytes"
                },
                {
                    "internalType": "uint256",
                    "name": "p",
                    "type": "uint256"
                },
                {
                    "internalType": "bytes32",
                    "name": "tt",
                    "type": "bytes32"
                },
                {
                    "internalType": "bytes32",
                    "name": "e",
                    "type": "bytes32"
                }
            ],
            "name": "quality",
            "outputs": [],
            "stateMutability": "nonpayable",
            "type": "function"
        },
        {
            "inputs": [],
            "name": "s",
            "outputs": [
                {
                    "internalType": "uint256",
                    "name": "",
                    "type": "uint256"
                }
            ],
            "stateMutability": "view",
            "type": "function"
        },
        {
            "inputs": [
                {
                    "internalType": "address",
                    "name": "receiver",
                    "type": "address"
                },
                {
                    "internalType": "uint256",
                    "name": "amount",
                    "type": "uint256"
                },
                {
                    "internalType": "address",
                    "name": "sender",
                    "type": "address"
                }
            ],
            "name": "sendCoin",
            "outputs": [
                {
                    "internalType": "bool",
                    "name": "sufficient",
                    "type": "bool"
                }
            ],
            "stateMutability": "nonpayable",
            "type": "function"
        },
        {
            "inputs": [],
            "name": "t",
            "outputs": [
                {
                    "internalType": "uint256",
                    "name": "",
                    "type": "uint256"
                }
            ],
            "stateMutability": "view",
            "type": "function"
        },
        {
            "inputs": [],
            "name": "tester",
            "outputs": [
                {
                    "internalType": "address",
                    "name": "",
                    "type": "address"
                }
            ],
            "stateMutability": "view",
            "type": "function"
        }
    ],
    "bytecode": "60806040526001600055600160025534801561001a57600080fd5b506114a68061002a6000396000f3fe608060405234801561001057600080fd5b50600436106100cf5760003560e01c80638308abd41161008c578063b81e3a5011610066578063b81e3a5014610628578063c3da42b814610672578063f8b2cb4f1461067a578063fb5ade31146106a0576100cf565b80638308abd4146105e257806386b714e21461060657806392d0d15314610620576100cf565b806304eb580c146100d457806307467a021461020a5780632c6d8fa7146102c95780635487e06e1461036d57806354bb13611461042e5780635ef53ded1461053e575b600080fd5b610208600480360360a08110156100ea57600080fd5b810190602081018135600160201b81111561010457600080fd5b82018360208201111561011657600080fd5b803590602001918460018302840111600160201b8311171561013757600080fd5b91908080601f0160208091040260200160405190810160405280939291908181526020018383808284376000920191909152509295949360208101935035915050600160201b81111561018957600080fd5b82018360208201111561019b57600080fd5b803590602001918460018302840111600160201b831117156101bc57600080fd5b91908080601f01602080910402602001604051908101604052809392919081815260200183838082843760009201919091525092955050823593505050602081013590604001356106c6565b005b6102276004803603602081101561022057600080fd5b503561083d565b6040518080602001888152602001878152602001868152602001858152602001848152602001838152602001828103825289818151815260200191508051906020019080838360005b83811015610288578181015183820152602001610270565b50505050905090810190601f1680156102b55780820380516001836020036101000a031916815260200191505b509850505050505050505060405180910390f35b610227600480360360208110156102df57600080fd5b810190602081018135600160201b8111156102f957600080fd5b82018360208201111561030b57600080fd5b803590602001918460018302840111600160201b8311171561032c57600080fd5b91908080601f016020809104026020016040519081016040528093929190818152602001838380828437600092019190915250929550610911945050505050565b610208600480360360e081101561038357600080fd5b810190602081018135600160201b81111561039d57600080fd5b8201836020820111156103af57600080fd5b803590602001918460018302840111600160201b831117156103d057600080fd5b91908080601f0160208091040260200160405190810160405280939291908181526020018383808284376000920191909152509295505082359350505060208101359060408101359060608101359060808101359060a00135610c8d565b61044b6004803603602081101561044457600080fd5b5035610e24565b604051808060200180602001868152602001858152602001848152602001838103835288818151815260200191508051906020019080838360005b8381101561049e578181015183820152602001610486565b50505050905090810190601f1680156104cb5780820380516001836020036101000a031916815260200191505b50838103825287518152875160209182019189019080838360005b838110156104fe5781810151838201526020016104e6565b50505050905090810190601f16801561052b5780820380516001836020036101000a031916815260200191505b5097505050505050505060405180910390f35b61044b6004803603602081101561055457600080fd5b810190602081018135600160201b81111561056e57600080fd5b82018360208201111561058057600080fd5b803590602001918460018302840111600160201b831117156105a157600080fd5b91908080601f016020809104026020016040519081016040528093929190818152602001838380828437600092019190915250929550610f84945050505050565b6105ea6112b1565b604080516001600160a01b039092168252519081900360200190f35b61060e6112c0565b60408051918252519081900360200190f35b61060e6112c6565b61065e6004803603606081101561063e57600080fd5b506001600160a01b038135811691602081013591604090910135166112cc565b604080519115158252519081900360200190f35b61060e61132c565b61060e6004803603602081101561069057600080fd5b50356001600160a01b0316611332565b610208600480360360208110156106b657600080fd5b50356001600160a01b031661134d565b6106ce61136b565b6040518060a00160405280878152602001868152602001858152602001848152602001838152509050806008876040518082805190602001908083835b6020831061072a5780518252601f19909201916020918201910161070b565b51815160209384036101000a600019018019909216911617905292019485525060405193849003810190932084518051919461076b94508593500190611399565b5060208281015180516107849260018501920190611399565b506040820151600282015560608201516003820155608090910151600490910155600980546001810182556000919091528151805183926005027f6e1540171b6c0c960b71a7020d9f60077f6af931a8bbf590da0223dacf75c7af01916107f091839160200190611399565b5060208281015180516108099260018501920190611399565b5060408201516002808301919091556060830151600383015560809092015160049091015580546001019055505050505050565b6007818154811061084a57fe5b60009182526020918290206007919091020180546040805160026001841615610100026000190190931692909204601f8101859004850283018501909152808252919350918391908301828280156108e35780601f106108b8576101008083540402835291602001916108e3565b820191906000526020600020905b8154815290600101906020018083116108c657829003601f168201915b5050505050908060010154908060020154908060030154908060040154908060050154908060060154905087565b60606000806000806000806006886040518082805190602001908083835b6020831061094e5780518252601f19909201916020918201910161092f565b51815160209384036101000a600019018019909216911617905292019485525060405193849003810184208c519094600694508d9350918291908401908083835b602083106109ae5780518252601f19909201916020918201910161098f565b51815160209384036101000a60001901801990921691161790529201948552506040519384900381018420600101548d519094600694508e9350918291908401908083835b60208310610a125780518252601f1990920191602091820191016109f3565b51815160209384036101000a60001901801990921691161790529201948552506040519384900381018420600201548e519094600694508f9350918291908401908083835b60208310610a765780518252601f199092019160209182019101610a57565b6001836020036101000a03801982511681845116808217855250505050505090500191505090815260200160405180910390206003015460068c6040518082805190602001908083835b60208310610adf5780518252601f199092019160209182019101610ac0565b6001836020036101000a03801982511681845116808217855250505050505090500191505090815260200160405180910390206004015460068d6040518082805190602001908083835b60208310610b485780518252601f199092019160209182019101610b29565b6001836020036101000a03801982511681845116808217855250505050505090500191505090815260200160405180910390206005015460068e6040518082805190602001908083835b60208310610bb15780518252601f199092019160209182019101610b92565b518151600019602094850361010090810a82019283169219939093169190911790925294909201968752604080519788900382018820600601548e54601f6002600183161590980290950116959095049283018290048202880182019052818752929594508b9350918401905082828015610c6d5780601f10610c4257610100808354040283529160200191610c6d565b820191906000526020600020905b815481529060010190602001808311610c5057829003601f168201915b505050505096509650965096509650965096509650919395979092949650565b610c95611417565b6040518060e00160405280898152602001888152602001878152602001868152602001858152602001848152602001838152509050806006896040518082805190602001908083835b60208310610cfd5780518252601f199092019160209182019101610cde565b51815160209384036101000a6000190180199092169116179052920194855250604051938490038101909320845180519194610d3e94508593500190611399565b5060208281015160018084019190915560408401516002840155606084015160038401556080840151600484015560a0840151600584015560c09093015160069092019190915560078054928301815560008190528351805185949092027fa66cc928b5edb82af9bd49922954155ab7b0942694bea4ce44661d9a8736c6880192610dce92849290910190611399565b50602082015160018083019190915560408301516002830155606083015160038301556080830151600483015560a0830151600583015560c0909201516006909101556000805490910190555050505050505050565b60098181548110610e3157fe5b60009182526020918290206005919091020180546040805160026001841615610100026000190190931692909204601f810185900485028301850190915280825291935091839190830182828015610eca5780601f10610e9f57610100808354040283529160200191610eca565b820191906000526020600020905b815481529060010190602001808311610ead57829003601f168201915b505050505090806001018054600181600116156101000203166002900480601f016020809104026020016040519081016040528092919081815260200182805460018160011615610100020316600290048015610f685780601f10610f3d57610100808354040283529160200191610f68565b820191906000526020600020905b815481529060010190602001808311610f4b57829003601f168201915b5050505050908060020154908060030154908060040154905085565b60608060008060006008866040518082805190602001908083835b60208310610fbe5780518252601f199092019160209182019101610f9f565b51815160209384036101000a600019018019909216911617905292019485525060405193849003810184208a519094600894508b9350918291908401908083835b6020831061101e5780518252601f199092019160209182019101610fff565b6001836020036101000a03801982511681845116808217855250505050505090500191505090815260200160405180910390206001016008886040518082805190602001908083835b602083106110865780518252601f199092019160209182019101611067565b51815160209384036101000a60001901801990921691161790529201948552506040519384900381018420600201548c519094600894508d9350918291908401908083835b602083106110ea5780518252601f1990920191602091820191016110cb565b51815160209384036101000a60001901801990921691161790529201948552506040519384900381018420600301548d519094600894508e9350918291908401908083835b6020831061114e5780518252601f19909201916020918201910161112f565b518151600019602094850361010090810a82019283169219939093169190911790925294909201968752604080519788900382018820600401548c54601f60026001831615909802909501169590950492830182900482028801820190528187529295945089935091840190508282801561120a5780601f106111df5761010080835404028352916020019161120a565b820191906000526020600020905b8154815290600101906020018083116111ed57829003601f168201915b5050875460408051602060026001851615610100026000190190941693909304601f8101849004840282018401909252818152959a50899450925084019050828280156112985780601f1061126d57610100808354040283529160200191611298565b820191906000526020600020905b81548152906001019060200180831161127b57829003601f168201915b50989f939e50959c50939a509198509650505050505050565b6004546001600160a01b031681565b60005481565b60025481565b6001600160a01b0381166000908152600360205260408120548311156112f457506000611325565b506001600160a01b038082166000908152600360205260408082208054869003905591851681522080548301905560015b9392505050565b60015481565b6001600160a01b031660009081526003602052604090205490565b6001600160a01b031660009081526003602052604090206107d09055565b6040805160a08101825260608082526020820181905260009282018390528101829052608081019190915290565b828054600181600116156101000203166002900490600052602060002090601f016020900481019282601f106113da57805160ff1916838001178555611407565b82800160010185558215611407579182015b828111156114075782518255916020019190600101906113ec565b50611413929150611453565b5090565b6040805160e081018252606080825260006020830181905292820183905281018290526080810182905260a0810182905260c081019190915290565b61146d91905b808211156114135760008155600101611459565b9056fea26469706673582212203e75778a6516780471a31db1f285d1eae62d6cad8cb2542c264275e70be1c89264736f6c63430006010033",
    "sourcePath": "c:/Users/DELL/nmit-hacks/contracts/contract2.sol",
    "compiler": {
        "name": "solc",
        "version": "0.6.1+commit.e6f7d5a4"
    },
    "functionHashes": {
        "c()": "c3da42b8",
        "fm(uint256)": "07467a02",
        "fundaddr(address)": "fb5ade31",
        "getBalance(address)": "f8b2cb4f",
        "getproduce(bytes)": "2c6d8fa7",
        "getquality(bytes)": "5ef53ded",
        "l(uint256)": "54bb1361",
        "produce(bytes,bytes32,bytes32,bytes32,uint256,uint256,uint256)": "5487e06e",
        "quality(bytes,bytes,uint256,bytes32,bytes32)": "04eb580c",
        "s()": "86b714e2",
        "sendCoin(address,uint256,address)": "b81e3a50",
        "t()": "92d0d153",
        "tester()": "8308abd4"
    },
    "gasEstimates": {
        "creation": {
            "codeDepositCost": "1057200",
            "executionCost": "41112",
            "totalCost": "1098312"
        },
        "external": {
            "c()": "1042",
            "fm(uint256)": "infinite",
            "fundaddr(address)": "20385",
            "getBalance(address)": "1208",
            "getproduce(bytes)": "infinite",
            "getquality(bytes)": "infinite",
            "l(uint256)": "infinite",
            "produce(bytes,bytes32,bytes32,bytes32,uint256,uint256,uint256)": "infinite",
            "quality(bytes,bytes,uint256,bytes32,bytes32)": "infinite",
            "s()": "1043",
            "sendCoin(address,uint256,address)": "43033",
            "t()": "1065",
            "tester()": "1060"
        }
    }
}